:100000006F0000197300203073002030730020301F
:100010006F00402D73002030730020306F00002DE2
:100020006F00C02E7300203073002030730020302A
:10003000730020306F00C02D6F00802F6F004031A3
:100040006F0000336F00C0346F0080366F0040389F
:100050006F00003A6F00C03B6F00803D6F00403F73
:100060006F0000416F00C0426F0080446F00404647
:100070006F0000486F00C0496F00804B6F00404D1B
:100080006F00004F6F00C0256F0080256F00402576
:100090006F0000566F00C0246F0080246F0040572F
:1000A000130181F8232241002324510023266100FB
:1000B00023287100232A8100232C9100232EA100E4
:1000C0002320B1022322C1022324D1022326E102EC
:1000D0002328F102232A0103232C1103232E2103B9
:1000E00023203105232241052324510523266105C0
:1000F00023287105232A8105232C9105232EA10590
:100100002320B1072322C1072324D1072326E10797
:100110002328F10767800000032241008322810029
:100120000323C100832301010324410183248101AE
:100130000325C10183250102032641028326810292
:100140000327C10283270103032841038328810376
:100150000329C10383290104032A4104832A81045A
:10016000032BC104832B0105032C4105832C81053E
:10017000032DC105832D0106032E4106832E810622
:10018000032FC106832F0107130181076780000039
:10019000930000001302000093020000130300000C
:1001A00093030000130400009304000013050000F3
:1001B00093050000130600009306000013070000DB
:1001C00093070000130800009308000013090000C3
:1001D00093090000130A0000930A0000130B0000AB
:1001E000930B0000130C0000930C0000130D000093
:1001F000930D0000130E0000930E0000130F00007B
:10020000930F0000970100029381C165174100021E
:10021000130141DF1303F00573154330374FFEFF21
:10022000130F0F681303F06B23206F00374FFEFF8F
:10023000130F4F681303704A23206F00374FFEFFE0
:10024000130F8F68370300011303537A23206F00C5
:10025000374FFEFF130FCF68370308011303537A9C
:1002600023206F00374FFEFF130F0F693703001075
:100270001303537A23206F00374FFEFF130F4F698C
:10028000370308101303537A23206F00374FFEFF04
:10029000130F8F693703F8651303537A23206F0018
:1002A000374FFEFF130FCF69370300201303537A34
:1002B00023206F00374FFEFF130F0F5837C3000086
:1002C0001303F3FF23206F00374FFEFF130F0F18A8
:1002D00037230007130373A723206F006F008033B9
:1002E00073002030EF00902F730020301301C1FF06
:1002F00023201100EFF0DFDAEF00D00DEFF0DFE1A7
:10030000832001001301410073002030730020306E
:100310001301C1FF23201100EFF09FD8EF00407FB1
:10032000EFF09FDF832001001301410073002030B4
:100330001301C1FF23201100EFF09FD6EF00007FD3
:10034000EFF09FDD83200100130141007300203096
:100350001301C1FF23201100EFF09FD4EF00C07EF6
:10036000EFF09FDB83200100130141007300203078
:100370001301C1FF23201100EFF09FD2EF00807E18
:10038000EFF09FD98320010013014100730020305A
:100390001301C1FF23201100EFF09FD0EF00407E3A
:1003A000EFF09FD78320010013014100730020303C
:1003B0001301C1FF23201100EFF09FCEEF00007E5C
:1003C000EFF09FD58320010013014100730020301E
:1003D0001301C1FF23201100EFF09FCCEF00C07D7F
:1003E000EFF09FD383200100130141007300203000
:1003F0001301C1FF23201100EFF09FCAEF0050004E
:10040000EFF09FD1832001001301410073002030E1
:100410001301C1FF23201100EFF09FC8EF0010006F
:10042000EFF09FCF832001001301410073002030C3
:100430001301C1FF23201100EFF09FC6EF00C07F22
:10044000EFF09FCD832001001301410073002030A5
:100450001301C1FF23201100EFF09FC4EF00807F44
:10046000EFF09FCB83200100130141007300203087
:100470001301C1FF23201100EFF09FC2EF00407F66
:10048000EFF09FC983200100130141007300203069
:100490001301C1FF23201100EFF09FC0EF00007F88
:1004A000EFF09FC78320010013014100730020304B
:1004B0001301C1FF23201100EFF09FBEEF00C07EAB
:1004C000EFF09FC58320010013014100730020302D
:1004D0001301C1FF23201100EFF09FBCEF00807ECD
:1004E000EFF09FC38320010013014100730020300F
:1004F0001301C1FF23201100EFF09FBAEF00407EEF
:10050000EFF09FC1832001001301410073002030F0
:100510001301C1FF23201100EFF09FB8EF00007E10
:10052000EFF09FBF832001001301410073002030D2
:100530001301C1FF23201100EFF09FB6EF0010035D
:10054000EFF09FBD832001001301410073002030B4
:100550001301C1FF23201100EFF09FB4EF00807D55
:10056000EFF09FBB83200100130141007300203096
:100570001301C1FF23201100EFF09FB2EF00D00064
:10058000EFF09FB983200100130141007300203078
:100590001301C1FF23201100EFF09FB0EF00900086
:1005A000EFF09FB78320010013014100730020305A
:1005B0001301C1FF23201100EFF09FAEEF00C075C3
:1005C000EFF09FB58320010013014100730020303C
:1005D0001301C1FF23201100EFF09FACEF00407723
:1005E000EFF09FB38320010013014100730020301E
:1005F0001301C1FF23201100EFF09FAAEF00407C00
:10060000EFF09FB1832001001301410073002030FF
:0C06100073002030EF00401D6F10807060
:10061C00970700009387479E638807001715000013
:10062C001305C5736F10C06D67800000130101FDC9
:10063C00232611022324810213040103232604FE22
:10064C00232404FE232204FE232004FE232E04FC78
:10065C00232C04FC9387418C3797FEFF23A0E700E3
:10066C001385418CEF10000E9387418A37A7FEFF4C
:10067C0023A0E7001385418AEF10C00C93071000EC
:10068C002328F4FC93071000232AF4FC930704FDA1
:10069C0093850700B787FEFF13858706EF00C02000
:1006AC00930710002328F4FC93072000232AF4FC62
:1006BC00930704FD93850700B787FEFF1385C702D8
:1006CC00EF00801E0327C4FEB7470F009387072453
:1006DC00631EF70E232604FE93051000B787FEFF5A
:1006EC0013858706EF0080372322A4FE032744FEE0
:1006FC00930710006310F70C1735000013054543E2
:10070C00EF10C0751735000013054543EF10007549
:10071C0093052000B787FEFF13858706EF00003492
:10072C002320A4FE032704FE93071000631AF7028C
:10073C001735000013058541EF104072232404FE89
:10074C006F000001832784FE938717002324F4FE97
:10075C00032784FEB7C72D009387F76BE3F4E7FEFE
:10076C0093054000B787FEFF13858706EF00002F27
:10077C00232EA4FC0327C4FD930710006318F70471
:10078C00173500001305853DEF10406D232404FE42
:10079C006F000001832784FE938717002324F4FE47
:1007AC00032784FEB7871E009387F747E3F4E7FE21
:1007BC006F00C001032744FE930710006318F70075
:1007CC00173500001305C536EF1040698327C4FEAA
:1007DC00938717002326F4FE6FF0DFEE97010002DB
:1007EC009381810717350000130505459705000215
:1007FC00938585801386818063FCC5008322050068
:10080C0023A055001305450093854500E3E8C5FE7C
:10081C00138581809385818E6378B5002320050034
:10082C0013054500E36CB5FE1715000013050553C1
:10083C00EF10004DEF10005897000000130101FF5E
:10084C0023241100130A1000130500009305000067
:10085C00B707FEFF9387470083A7070093F717009E
:10086C00E38807FEEFF09FDC6F10C04A6F000000BA
:10087C00130101FF23268100130401011300000062
:10088C000324C1001301010167800000130101FF63
:10089C002326810013040101130000000324C1006E
:1008AC001301010167800000130101FD2326810261
:1008BC0013040103232EA4FC232CB4FC232604FED6
:1008CC00232404FEB717FEFF938707C483A60700F3
:1008DC00B717FEFF938707C43707000433E7E6001A
:1008EC0023A0E7006F0040158327C4FE13071000F8
:1008FC00B317F7002322F4FE832784FD83A7070098
:10090C00032744FEB377F7002320F4FE032704FEED
:10091C00832744FE631CF7108327C4FD03A7C7007D
:10092C00832744FE93C7F7FF3377F7008327C4FD73
:10093C0023A6E7008327C4FD03A78700832744FE73
:10094C0093C7F7FF3377F7008327C4FD23A4E70091
:10095C00032744FE9307F00063EEE7008327C4FEF1
:10096C009387870013071000B317F7002324F4FEB6
:10097C006F0040018327C4FE13071000B317F70064
:10098C002324F4FE832784FD83A7470093F72700D5
:10099C00638007028327C4FD03A74700832744FE17
:1009AC003367F7008327C4FD23A2E7006F00000222
:1009BC008327C4FD03A74700832744FE93C7F7FF93
:1009CC003377F7008327C4FD23A2E700832784FD38
:1009DC0083A7470093F7470063820702B717FEFF10
:1009EC009387470283A60700B717FEFF938747023A
:1009FC00032784FE33E7E60023A0E700832784FD6A
:100A0C0083A7470093F7870063820702B717FEFF9F
:100A1C009387870283A60700B717FEFF9387870289
:100A2C00032784FE33E7E60023A0E7008327C4FEF8
:100A3C00938717002326F4FE832784FD03A7070062
:100A4C008327C4FEB357F700E39007EA13000000B6
:100A5C000324C1021301010367800000130101FD8F
:100A6C002326810213040103232EA4FC9387050083
:100A7C00231DF4FC8327C4FD03A707018357A4FDA2
:100A8C00B377F70063880700930710002326F4FE62
:100A9C006F008000232604FE8327C4FE1385070005
:100AAC000324C1021301010367800000130101FE3E
:100ABC00232E810013040102930705002317F4FE73
:100ACC00B717FEFF938787C50357E4FE23A0E70003
:100ADC00B717FEFF9387C7C583A60700B717FEFF9E
:100AEC009387C7C53707FFFF1307E7FF33F7E60008
:100AFC0023A0E700130000000324C101130101022D
:100B0C0067800000130101FF2326810013040101FB
:100B1C00130000000324C1001301010167800000D1
:100B2C00130101FF232681001304010113000000AF
:100B3C000324C1001301010167800000130101FFB0
:100B4C002326810013040101130000000324C100BB
:100B5C001301010167800000130101FF23268100AE
:100B6C0013040101130000000324C100130101014F
:100B7C0067800000130101FF23268100130401018B
:100B8C00130000000324C100130101016780000061
:100B9C00130101FF2326810013040101130000003F
:100BAC000324C1001301010167800000130101FF40
:100BBC002326810013040101130000000324C1004B
:100BCC001301010167800000130101FF23261100AE
:100BDC0023248100130401011305F01FEFF01FED16
:100BEC00130000008320C1000324810013010101C4
:100BFC0067800000130101FF23268100130401010B
:100C0C00130000000324C1001301010167800000E0
:100C1C00130101FF232681001304010113000000BE
:100C2C000324C1001301010167800000130101FFBF
:100C3C002326810013040101130000000324C100CA
:100C4C001301010167800000130101FF23268100BD
:100C5C0013040101130000000324C100130101015E
:100C6C0067800000130101FF23268100130401019A
:100C7C00130000000324C100130101016780000070
:100C8C00130101FF2326810013040101130000004E
:100C9C000324C1001301010167800000130101FF4F
:100CAC002326810013040101130000000324C1005A
:100CBC001301010167800000130101FF232681004D
:100CCC0013040101130000000324C10013010101EE
:100CDC0067800000130101FF23268100130401012A
:100CEC00130000000324C100130101016780000000
:100CFC00130101FF232681001304010113000000DE
:100D0C000324C1001301010167800000130101FFDE
:100D1C002326810013040101130000000324C100E9
:100D2C001301010167800000130101FF23268100DC
:100D3C0013040101130000000324C100130101017D
:100D4C0067800000130101FF2326810013040101B9
:100D5C00130000000324C10013010101678000008F
:100D6C00130101FF2326810013040101130000006D
:100D7C000324C1001301010167800000130101FF6E
:100D8C002326810013040101130000000324C10079
:100D9C001301010167800000130101FF232681006C
:100DAC0013040101130000000324C100130101010D
:100DBC0067800000130101FF232681001304010149
:100DCC00130000000324C10013010101678000001F
:100DDC00130101FF232611002324810013040101B8
:100DEC0013053004EF0080006FF09FFF130101FE2C
:100DFC00232E81001304010293070500A307F4FEC0
:100E0C0013000000B797FEFF9387870183A70700A5
:100E1C0093F70704E38807FEB797FEFF0347F4FE3A
:100E2C0023A0E700130000000324C10113010102F9
:100E3C0067800000130101FE232E810013040102C0
:100E4C0093070500A307F4FE13000000B7A7FEFFED
:100E5C009387870183A7070093F70704E38807FEAE
:100E6C00B7A7FEFF0347F4FE23A0E7001300000022
:100E7C000324C1011301010267800000130101FE6C
:100E8C00232E8100130401022326A4FE9387050060
:100E9C00A305F4FEB717FEFF938707C483A60700CC
:100EAC00B717FEFF938707C43707000833E7E60040
:100EBC0023A0E7008327C4FE03A70700B797FEFF14
:100ECC006314F704B717FEFF938707C303A7070044
:100EDC00B7F7FFFF9387F70FB376F7008347B4FE9E
:100EEC009397870013870700B7170000938707F0C5
:100EFC003377F700B717FEFF938707C333E7E60096
:100F0C0023A0E7006F004004B717FEFF938707C3C9
:100F1C0003A70700B717FFFF9387F7FFB376F70018
:100F2C008347B4FE9397C70013870700B7070100E8
:100F3C009387F7FF3377F700B717FEFF938707C345
:100F4C0033E7E60023A0E700130000000324C101EF
:100F5C001301010267800000130101FE232E8100A2
:100F6C00130401022326A4FE8327C4FE03A7070053
:100F7C00B797FEFF631CF700B707FEFF9387C70008
:100F8C003787000023A0E7006F004001B707FEFF82
:100F9C009387C7003747000023A0E7001300000029
:100FAC000324C1011301010267800000130101FE3B
:100FBC00232E8100130401022326A4FE938705002F
:100FCC0013070600A305F4FE930707002305F4FEA0
:100FDC008347A4FE638207028327C4FE83A707000E
:100FEC0003A7C7008327C4FE83A7070013678700E6
:100FFC0023A6E7006F0000028327C4FE83A7070027
:10100C0003A7C7008327C4FE83A70700137777FFC6
:10101C0023A6E7008347B4FE638207028327C4FE3E
:10102C0083A7070003A7C7008327C4FE83A7070075
:10103C001367470023A6E7006F0000028327C4FE56
:10104C0083A7070003A7C7008327C4FE83A7070055
:10105C001377B7FF23A6E7008327C4FE83A70700F7
:10106C0003A747008327C4FE83A70700136707085D
:10107C0023A2E7008327C4FE83A7070003A7C700AA
:10108C008327C4FE83A707001367170023A6E70076
:10109C008327C4FE83A7070003A747028327C4FE48
:1010AC0083A707001367070123A2E70213000000C0
:1010BC000324C1011301010267800000130101FE2A
:1010CC00232E8100130401022326A4FE938705001E
:1010DC0013070600A305F4FE930707002305F4FE8F
:1010EC008327C4FE03A70700B797FEFF631EF7080C
:1010FC008347B4FE639607008347A4FE638407040A
:10110C00B717FEFF9387470083A60700B717FEFFAC
:10111C00938747003707000133E7E60023A0E70079
:10112C00B717FEFF9387070983A7070013F707FF7D
:10113C00B717FEFF938707091367E70023A0E700A3
:10114C006F00C00EB717FEFF9387470083A60700FA
:10115C00B717FEFF93874700370700FF1307F7FF0A
:10116C0033F7E60023A0E700B717FEFF93870709C4
:10117C0003A70700B717FEFF938707091367F7004C
:10118C0023A0E7006F00800A8327C4FE03A7070093
:10119C00B7A7FEFF631CF7088347B4FE63960700EE
:1011AC008347A4FE63840704B717FEFF93874700A9
:1011BC0083A60700B717FEFF938747003707000287
:1011CC0033E7E60023A0E700B717FEFF9387470934
:1011DC0083A7070013F707FFB717FEFF938747098D
:1011EC001367E70023A0E7006F004004B717FEFF6A
:1011FC009387470083A60700B717FEFF9387470026
:10120C00370700FE1307F7FF33F7E60023A0E700CC
:10121C00B717FEFF9387470903A70700B717FEFF11
:10122C00938747091367F70023A0E7008347B4FEB1
:10123C00638207028327C4FE83A7070003A7C700A6
:10124C008327C4FE83A707001367070223A6E700C2
:10125C006F0000028327C4FE83A7070003A7C70003
:10126C008327C4FE83A707001377F7FD23A6E700A7
:10127C008347A4FE638207028327C4FE83A707006B
:10128C0003A7C7008327C4FE83A7070013670708BB
:10129C0023A6E7006F0000028327C4FE83A7070084
:1012AC0003A7C7008327C4FE83A707001377F7F7AC
:1012BC0023A6E700130000000324C101130101025F
:1012CC0067800000130101FE232E8100130401022C
:1012DC002326A4FE2324B4FE032784FEB7070010A4
:1012EC00B377F700638207028327C4FE83A7070046
:1012FC0083A6C7008327C4FE83A707003707001007
:10130C0033E7E60023A6E700032784FEB7170000A7
:10131C00B377F700638207028327C4FE83A7070015
:10132C0083A6C7008327C4FE83A7070037170000D6
:10133C0033E7E60023A6E700130000000324C101F5
:10134C001301010267800000130101FE232E8100AE
:10135C00130401022326A4FE93870500A305F4FEC3
:10136C008327C4FE83A7070003A7C700B787FFFF27
:10137C009387F7FFB376F7008347B4FE9397F70094
:10138C0013870700B70701009387F7FF3377F70040
:10139C008327C4FE83A7070033E7E60023A6E700F4
:1013AC00130000000324C101130101026780000037
:1013BC00130101FE232E8100130401022326A4FE37
:1013CC00938705002315F4FE8356A4FE8327C4FEE1
:1013DC0083A7070037070100130707FF33F7E60061
:1013EC0023A8E7020357A4FE8327C4FE83A70700A4
:1013FC001377F70023A6E7028327C4FE83A7070011
:10140C0023A00702130000000324C10113010102F1
:10141C0067800000130101FE232E810013040102DA
:10142C002326A4FE93870500A305F4FE8327C4FEA0
:10143C0083A7070003A70701B7D7FFFF9387F7FF21
:10144C00B376F7008347B4FE9397C7001387070062
:10145C00B73700003377F7008327C4FE83A7070054
:10146C0033E7E60023A8E700130000000324C101C2
:10147C001301010267800000130101FE232E81007D
:10148C00130401022326A4FE93870500A305F4FE92
:10149C008327C4FE83A7070003A70701B707F8FF3C
:1014AC009387F7FFB376F7008347B4FE9397370122
:1014BC0013870700B70708003377F7008327C4FEAC
:1014CC0083A7070033E7E60023A8E700130000001A
:1014DC000324C1011301010267800000130101FE06
:1014EC00232E8100130401022326A4FE93870500FA
:1014FC00A305F4FE8327C4FE83A7070003A70701F7
:10150C00B7F7FFFF9387F77FB376F7008347B4FEF7
:10151C009397B70013870700B717000093870780CE
:10152C003377F7008327C4FE83A7070033E7E60071
:10153C0023A8E700130000000324C10113010102DA
:10154C0067800000130101FE232E810013040102A9
:10155C002326A4FE8327C4FE03A70700B797FEFF2C
:10156C006318F70AB787FEFF9387470003A7C700E6
:10157C00B787FEFF938747001367170023A6E70082
:10158C00B787FEFF9387470003A78700B787FEFF47
:10159C00938747001367170023A4E700B787FEFF64
:1015AC009387470003A74700B787FEFF9387470041
:1015BC001367170023A2E700B787FEFF9387470046
:1015CC0003A7C700B787FEFF938747001367270061
:1015DC0023A6E700B787FEFF9387470003A7870082
:1015EC00B787FEFF938747001367270023A4E70004
:1015FC00B787FEFF9387470003A74700B787FEFF17
:10160C00938747001377D7FF23A2E7006F0080056D
:10161C00B787FEFF9387470003A7C700B787FEFF76
:10162C00938747001367870023A6E700B787FEFF61
:10163C009387470003A78700B787FEFF9387470070
:10164C001367870023A4E700B787FEFF9387470043
:10165C0003A74700B787FEFF9387470013678700F0
:10166C0023A2E700130000000324C10113010102AF
:10167C0067800000130101FE232E81001304010278
:10168C002326A4FE93870500A305F4FE8347B4FE2E
:10169C00638207028327C4FE83A7070003A7C70141
:1016AC008327C4FE83A707001367070223AEE70056
:1016BC006F0000028327C4FE83A7070003A7C7019E
:1016CC008327C4FE83A707001377F7FD23AEE7003B
:1016DC00130000000324C101130101026780000004
:1016EC00130101FE232E8100130401022326A4FE04
:1016FC002324B4FE032784FEB70700016368F700B8
:10170C00B70700019387F7FF2324F4FE8327C4FE59
:10171C0083A7070003A74701B70700FFB376F700BD
:10172C008327C4FE83A70700032784FE33E7E60064
:10173C0023AAE700130000000324C10113010102D6
:10174C0067800000130101FE232E1100232C810061
:10175C00130401022326A4FE0325C4FEEFF0CFFFE1
:10176C00930590000325C4FEEFF04FF19305A00103
:10177C000325C4FEEFF0DFC30325C4FEEFF09FDCAE
:10178C00930500000325C4FEEFF0DFC893050000AD
:10179C000325C4FEEFF05FCE930510000325C4FEB5
:1017AC00EFF0DFD3930500000325C4FEEFF0DFB9A3
:1017BC00930500000325C4FEEFF0DFB09305000095
:1017CC000325C4FEEFF01FEB930500190325C4FE9F
:1017DC00EFF01FF1B707FEFF03A70700B707FEFFE7
:1017EC001367071023A0E7001306100093051000E1
:1017FC000325C4FEEFF08FFB1306000093050000D9
:10180C000325C4FEEFF09F8B130000008320C10161
:10181C00032481011301010267800000130101FD03
:10182C00232611022324810213040103232EA4FC7A
:10183C00232CB4FC13062000972500009385053358
:10184C000325C4FDEF00803F93078000A307F4FE3F
:10185C006F0080088347F4FE9387F7FF2307F4FE9D
:10186C008347E4FE939727001307F000B317F700A4
:10187C0013870700832784FD3377F7008347E4FE43
:10188C0093972700B357F700A306F4FE0347D4FE43
:10189C009307900063EAE7008347D4FE938707031E
:1018AC0093F7F70F6F0000018347D4FE93877703FC
:1018BC0093F7F70F2306F4FE9307C4FE13061000EC
:1018CC00938507000325C4FDEF0040378347F4FEE2
:1018DC009387F7FFA307F4FE8347F4FEE39C07F618
:1018EC00130000008320C1020324810213010103B1
:1018FC0067800000130101FC232E1102232C8102AE
:10190C00130401042326A4FC972700009387872641
:10191C0083A8070003A8470003A5870083A5C70079
:10192C0003A6070183A6470103A78701232814FDFB
:10193C00232A04FD232CA4FC232EB4FC2320C4FE58
:10194C002322D4FE2324E4FE83D7C7012316F4FEFE
:10195C00930704FD1306D00193850700130520009F
:10196C00EF00C02D8325C4FC13052000EFF01FEB06
:10197C0013061000972500009385851F1305200082
:10198C00EF00C02B6F000000130101FE232E81001D
:10199C00130401022326A4FE9307F0FF138507000E
:1019AC000324C1011301010267800000130101FE31
:1019BC00232E1100232C8100130401022326A4FEE4
:1019CC0013059000EFF05FFC9307050013850700EB
:1019DC008320C101032481011301010267800000EF
:1019EC00130101FE232E8100130401022326A4FE01
:1019FC009307F0FF138507000324C10113010102B3
:101A0C0067800000130101FE232E1100232C81009E
:101A1C00130401022326A4FE2324B4FE0325C4FED2
:101A2C00EF00000493070500638C0700832784FEF6
:101A3C003727000023A2E700930700006F00000186
:101A4C0013059000EFF0DFF99307050013850700ED
:101A5C008320C1010324810113010102678000006E
:101A6C00130101FE232E8100130401022326A4FE80
:101A7C000327C4FE930710006308F7000327C4FE76
:101A8C00930720006316F700930710006F00800087
:101A9C0093070000138507000324C1011301010201
:101AAC0067800000130101FE232E81001304010244
:101ABC002326A4FE9307F0FF138507000324C1011E
:101ACC001301010267800000130101FE232E110097
:101ADC00232C8100130401022326A4FE2324B4FE2C
:101AEC002322C4FE0325C4FEEFF09FF793070500E5
:101AFC0063860700930700006F0000011305900038
:101B0C00EFF05FFA93070500138507008320C101EE
:101B1C00032481011301010267800000130101FEFF
:101B2C00232E8100130401022326A4FE9307F0FF49
:101B3C00138507000324C101130101026780000013
:101B4C00130101FE232E1100232C8100130401022A
:101B5C002326A4FE2324B4FE2322C4FE13059000E6
:101B6C00EFF0DFFB93070500138507008320C1010D
:101B7C00032481011301010267800000130101FE9F
:101B8C00232E8100130401022326A4FE97E7FF01F4
:101B9C009387874C03A707008327C4FE3307F700FE
:101BAC009387818E6362F70297E7FF019387C74A99
:101BBC0003A707008327C4FE3307F700972700020B
:101BCC009387870363F6E7009307F0FF6F00C0036A
:101BDC0097E7FF019387474803A707008327C4FEB5
:101BEC003307F70097E7FF019387074723A0E70028
:101BFC0097E7FF019387474603A707008327C4FE97
:101C0C00B307F040B307F700138507000324C101A5
:101C1C001301010267800000130101FE232E8100D5
:101C2C00130401022326A4FE9307F0FF138507007B
:101C3C000324C1011301010267800000130101FD9F
:101C4C00232611022324810213040103232EA4FC56
:101C5C00232CB4FC232AC4FC832784FD2324F4FE08
:101C6C000325C4FDEFF0DFDF93070500638A070649
:101C7C00232604FE6F00800597E7FF019387473EFC
:101C8C0003C70700930710006310F702032784FEB5
:101C9C008327C4FEB307F70083C70700138507002B
:101CAC00EFF04F996F00C001032784FE8327C4FE19
:101CBC00B307F70083C7070013850700EFF00F93F6
:101CCC008327C4FE938717002326F4FE0327C4FE44
:101CDC00832744FDE362F7FA832744FD6F0000017C
:101CEC0013059000EFF05FF39307050013850700D1
:101CFC008320C102032481021301010367800000C9
:101D0C009305050093060000130600001305000060
:101D1C006F00801C130101FF232481002326110076
:101D2C00970700009387C7251304050063860700F7
:101D3C0093050000EF00802497270000938747EF5E
:101D4C0003A507008327850263840700E78007004B
:101D5C0013050400EFF01FBA130101FF97270000D1
:101D6C00938787ED23248100172400001304C4EC0F
:101D7C003304F440232291002326110013542440F1
:101D8C0093840700631C0400032481008320C1009A
:101D9C0083244100130101016FE05FAF1304F4FFD2
:101DAC0093172400B387F40083A70700E78007008C
:101DBC006FF05FFD130101FF97270000938787E702
:101DCC0023248100172400001304C4E63304F440D8
:101DDC002322910023202101232611001354244097
:101DEC00930400001389070063928404EFE05FA85A
:101DFC0097270000938707E4172400001304C4E31B
:101E0C003304F44013542440930400001389070056
:101E1C00639A84028320C10003248100832441003F
:101E2C00032901001301010167800000939724002E
:101E3C00B307F90083A7070093841400E780070019
:101E4C006FF09FFA93972400B307F90083A707005C
:101E5C0093841400E78007006FF09FFB130101FCD3
:101E6C00232AF1022322B1022324C1022326D10208
:101E7C002328E102232C0103232E110397E7FF01F2
:101E8C009387C71D232C810003A40700232A9100EC
:101E9C00232E110093040500630A04008327840198
:101EAC006396070013050400EF004030832584007F
:101EBC009306410213860400130504002326D10067
:101ECC00EF00D0018320C10103248101832441014F
:101EDC0013010104678000009387C18083A707006A
:101EEC00130E0500639407021387818123A6E180FA
:101EFC0017E5FFFF1305451093070700630805005E
:101F0C008327050023A0F18A9307070003A7470046
:101F1C001308F0011305F0FF6340E80663020E049A
:101F2C0003A88708630A080493182700B30818014C
:101F3C0023A0C80003230810130610003316E60074
:101F4C003363C3002320681023A0D8089306200015
:101F5C006318DE008326481033E6C6002322C8101F
:101F6C00930617001317270023A2D700B387E700A7
:101F7C0023A4B7001305000067800000130101FDC6
:101F8C00232C4101232A51012328610123267101AD
:101F9C0023261102232481022322910223202103D0
:101FAC00232E310123248101130B0500138A050014
:101FBC00938AC180930B100003A40A00630E0400E3
:101FCC0083244400832984081389F4FF9394240008
:101FDC00B3049400635A09028320C10203248102D2
:101FEC0083244102032901028329C101032A8101AF
:101FFC00832A4101032B0101832BC100032C810097
:10200C00130101036780000063020A026398090050
:10201C001309F9FF9384C4FF6FF0DFFB93172900BA
:10202C00B387F90083A70708E39447FF032744000D
:10203C0083A744001307F7FF631E27032322240101
:10204C00E38807FC032C4400638A090083A609106B
:10205C0033972B01B376D70063920602E780070013
:10206C000327440083A70A00E31887F5E302F4FA78
:10207C006FF09FF423A204006FF09FFC93162900CD
:10208C00B386D90083A5060083A649103377D70001
:10209C006318070013050B00E78007006FF05FFC67
:1020AC0013850500E78007006FF09FFB130101FF0C
:1020BC002324810023261100130405002316B500E8
:1020CC002317C50023200500232205002324050027
:1020DC002322050623280500232A0500232C0500AE
:1020EC0013068000930500001305C505EF00803131
:1020FC00971700009387879F2322F40297170000FD
:10210C009387C7A32324F40297170000938747AB48
:10211C002326F40297170000938707B0232084022C
:10212C002328F4028320C100032481001301010140
:10213C0067800000971500009385C5006F00402153
:10214C00130101FF23229100130680069384F5FFEF
:10215C00B384C402232021011389050023248100A8
:10216C002326110093854407EF00803713040500E4
:10217C006300050223200500232225011305C50059
:10218C002324A4001386840693050000EF00802707
:10219C00130504008320C100032481008324410023
:1021AC0003290100130101016780000083278501C9
:1021BC006396070A130101FF2326110023248100D3
:1021CC0097070000938747F72324F5029727000011
:1021DC00938707A683A70700232405042326050459
:1021EC00232805046316F50093071000232CF50033
:1021FC0013040500EF00C0062322A40013050400FD
:10220C00EF0000062324A40013050400EF00400592
:10221C002326A40003254400130600009305400068
:10222C00EFF0DFE8032584001306100093059000FF
:10223C00EFF0DFE70325C40013062000930520010F
:10224C00EFF0DFE693071000232CF4008320C1008D
:10225C0003248100130101016780000067800000E6
:10226C00130101FF972700009387879C232291007D
:10227C0083A40700232021012326110083A78401B6
:10228C0023248100130905006396070013850400BD
:10229C00EFF0DFF19384840403A4840083A744004B
:1022AC009387F7FF63DA070083A7040063800708AE
:1022BC0083A404006FF05FFE0317C40063140706C9
:1022CC00B707FFFF9387170023220406232004007F
:1022DC0023220400232404002326F40023280400D2
:1022EC00232A0400232C040013068000930500000D
:1022FC001305C405EF000011232A0402232C040249
:10230C002324040423260404130504008320C100A1
:10231C0003248100832441000329010013010101DE
:10232C0067800000130484066FF09FF7930540004C
:10233C0013050900EFF0DFE023A0A400E31A05F673
:10234C009307C0002320F900130400006FF0DFFB9B
:10235C00130101FD2324810223202103232C41019D
:10236C00232A5101232861012326710123261102FE
:10237C0023229102232E3101130A0500938A0500B2
:10238C001304850413090000130B1000930BF0FFCA
:10239C00631A04028320C10203248102130509007D
:1023AC0083244102032901028329C101032A8101EB
:1023BC00832A4101032B0101832BC100130101036B
:1023CC006780000083248400832944009389F9FFEB
:1023DC0063D60900032404006FF09FFB83D7C4006D
:1023EC00637EFB008397E400638A77019385040086
:1023FC0013050A00E7800A003369A9009384840658
:10240C006FF0DFFC1303F00013070500637EC302BB
:10241C009377F7006390070A63920508937606FF9B
:10242C001376F600B386E6002320B7002322B7000C
:10243C002324B7002326B70013070701E366D7FE52
:10244C006314060067800000B306C3409396260011
:10245C0097020000B38656006780C6002307B700BA
:10246C00A306B7002306B700A305B7002305B700E2
:10247C00A304B7002304B700A303B7002303B700DA
:10248C00A302B7002302B700A301B7002301B700D2
:10249C00A300B7002300B7006780000093F5F50F89
:1024AC0093968500B3E5D50093960501B3E5D50069
:1024BC006FF0DFF69396270097020000B386560064
:1024CC0093820000E78006FA93800200938707FF4F
:1024DC003307F7403306F600E378C3F66FF0DFF30B
:1024EC00130101FE232A91009384350093F4C4FF59
:1024FC00232E1100232C81002328210123263101B6
:10250C00938484009307C00063F4F4069304C00022
:10251C0063E2B40613090500EF00506B9387018149
:10252C0003A7070013040700631A0406938741816D
:10253C0083A70700639A07009305000013050900A1
:10254C00EF00405623AAA1809385040013050900CF
:10255C00EF0040559309F0FF631A350B9307C00049
:10256C002320F90013050900EF0090666F000001AD
:10257C00E3D004FA9307C0002320F50013050000F4
:10258C008320C1010324810183244101032901011A
:10259C008329C10013010102678000008327040016
:1025AC00B387974063CE07049306B00063FAF60036
:1025BC002320F4003304F400232094006F00000166
:1025CC0083274400631A870223A8F18013050900AE
:1025DC00EF0010601305B40093074400137585FFDA
:1025EC003307F540E30E07F83304E400B387A74044
:1025FC002320F4006FF0DFF82322F7006FF01FFDAB
:10260C0013070400032444006FF01FF21304350079
:10261C001374C4FFE30285FAB305A4401305090043
:10262C00EF004048E31A35F96FF05FF3832786001B
:10263C009387F7FF2324F60063DC0700032786014A
:10264C0063C6E7009307A0006394F5006F00005D7C
:10265C008327060013850500138717002320E60047
:10266C002380B70067800000130101FE232C81003A
:10267C00232A9100232821012326310123244101FF
:10268C00232E11001309050093890500130406007D
:10269C00B304D600130AF0FF631694001305000070
:1026AC006F00C0018345040013860900130509005F
:1026BC00EFF0DFF713041400E31045FF8320C10192
:1026CC000324810183244101032901018329C100D1
:1026DC00032A81001301010267800000130101F637
:1026EC00232C8108232A9108232821092326310928
:1026FC00232E110823244109232251092320610987
:10270C00232E7107232C8107232A91079309050097
:10271C009384050013090600138406006308050062
:10272C008327850163940700EFF05FA897170000DB
:10273C00938747486392F41283A4490083D7C4005B
:10274C0093F78700638E071283A70401638A07122D
:10275C0093070002A304F102930700032322010252
:10276C002305F10223268100930B5002971A0000D7
:10277C00938A4A48130C1000130BA0001304090091
:10278C00834704006384070063907715B30C2441DE
:10279C0063860C0293860C001306090093850400D3
:1027AC0013850900EFF05FEC9307F0FF6302F52C43
:1027BC0083264102B38696012322D102834704006B
:1027CC006388072A9307F0FF1309140023280100DC
:1027DC00232E0100232AF100232C0100A30901045C
:1027EC0023240106834509001306500013850A00B3
:1027FC00EF00903B1304190083270101631A050CA9
:10280C0013F707016306070013070002A309E1048D
:10281C0013F78700630607001307B002A309E1044E
:10282C00834609001307A0026380E60C8327C101CD
:10283C0013040900930600001306900003470400DC
:10284C0093051400130707FD6372E610638A060AEA
:10285C00232EF1006F00C00A97170000938787376B
:10286C006396F40083A489006FF05FED9717000066
:10287C0093874732E394F4EC83A4C9006FF01FEC08
:10288C009385040013850900EF008051E30205ECE9
:10289C001305F0FF8320C109032481098324410916
:1028AC00032901098329C108032A8108832A4108C5
:1028BC00032B0108832BC107032C8107832C4107B1
:1028CC001301010A67800000130414006FF05FEB22
:1028DC00330555413315AC00B3E7A7002328F100AD
:1028EC00130904006FF01FF00327C1009306470083
:1028FC00032707002326D10063400704232EE100A1
:10290C00034704009307E0026314F708034714001D
:10291C009307A002631AF7048327C1001304240051
:10292C001387470083A707002326E10063CA070229
:10293C00232AF1006F00C0053307E04093E727001E
:10294C00232EE1002328F1006FF09FFBB387670370
:10295C009306100013840500B387E7006FF01FEE99
:10296C009307F0FF6FF0DFFC13041400232A01001F
:10297C009306000093070000130690000347040021
:10298C0093051400130707FD637CE608E39206FA2F
:10299C0083450400130630001715000013050526A7
:1029AC00EF0090206304050297170000938707251A
:1029BC003305F54093070004B397A70003250101E5
:1029CC00130414003365F5002328A100834504008B
:1029DC001306600017150000130585221309140057
:1029EC002304B102EF00501C630E050897D7FFFFBC
:1029FC009387876063980704032701018327C1002D
:102A0C001377071063080702938747002326F1000A
:102A1C0083274102B38747012322F1026FF01FD6AF
:102A2C00B38767039306100013840500B387E70090
:102A3C006FF0DFF49387770093F787FF9387870016
:102A4C006FF0DFFC1307C10097060000938606C2E7
:102A5C0013860400930501011385090097D0FFFF2D
:102A6C00E78080599307F0FF130A0500E312F5FA8B
:102A7C0083D7C40093F70704E39C07E003254102C6
:102A8C006FF05FE11307C10097060000938606BE46
:102A9C00138604009305010113850900EF00D03E55
:102AAC006FF05FFC130101FF232481001304050068
:102ABC001385050023A2018E23261100EFF00F8C45
:102ACC009307F0FF631AF5009387418E83A70700E5
:102ADC00638407002320F4008320C10003248100B9
:102AEC001301010167800000130101FF2324810001
:102AFC00138405008395E50023261100EF009075E3
:102B0C006340050283274405B387A700232AF404F6
:102B1C008320C100032481001301010167800000A0
:102B2C008357C40037F7FFFF1307F7FFB3F7E7002E
:102B3C002316F4006FF0DFFD83D7C500130101FEEF
:102B4C00232C8100232A91002328210123263101E3
:102B5C00232E110093F7071093040500138405002E
:102B6C001309060093890600638A07008395E50024
:102B7C009306200013060000EF0080668357C40004
:102B8C0037F7FFFF1307F7FFB3F7E7002316F4003F
:102B9C008315E400032481018320C101938609007D
:102BAC00130609008329C1000329010113850400C0
:102BBC0083244101130101026F00C019130101FFAD
:102BCC0023248100138405008395E500232611003E
:102BDC00EF0000619307F0FF0357C4006312F50286
:102BEC00B7F7FFFF9387F7FFB3F7E7002316F4005F
:102BFC008320C100032481001301010167800000C0
:102C0C00B7170000B367F7002316F400232AA404B7
:102C1C006FF01FFE8395E5006F008030130101FEFD
:102C2C00232C8100232A910023282101232E11001B
:102C3C0023263101930405001389050013040600B3
:102C4C00630805008327850163940700EFF00FD616
:102C5C0097170000938707F6631EF40A03A4440039
:102C6C00832784012324F4008357C40093F787003F
:102C7C006386070C832704016382070C83270401F6
:102C8C00032504009379F90F1379F90F3305F540F7
:102C9C0083274401634AF50093050400138504005F
:102CAC00EF00004A6314050A8327840013051500FE
:102CBC009387F7FF2324F40083270400138717005E
:102CCC002320E4002380370183274401638CA70071
:102CDC008357C40093F71700638E07009307A00077
:102CEC00631AF9009305040013850400EF004045B6
:102CFC00631E05048320C10103248101130509000F
:102D0C0083244101032901018329C100130101021C
:102D1C0067800000971700009387C7EB6316F400D9
:102D2C0003A484006FF0DFF397170000938787E606
:102D3C00E318F4F203A4C4006FF09FF293050400AF
:102D4C0013850400EF00C005E30A05F21309F0FF38
:102D5C006FF05FFA130101FF2324810013040500B7
:102D6C0013850500930506001386060023A2018E29
:102D7C0023261100EFE09FEC9307F0FF631AF50098
:102D8C009387418E83A70700638407002320F400F8
:102D9C008320C1000324810013010101678000001E
:102DAC00130101FF97D7FF019387472B2322910033
:102DBC0083A4070023248100232021012326110052
:102DCC001309050013840500638A040083A784019A
:102DDC006396070013850400EFF04FBD97170000B2
:102DEC00938747DD6318F40403A444000317C4005D
:102DFC009317070193D7070193F687006394060A8C
:102E0C0093F60701639C0604930790002320F900B6
:102E1C00136707042316E4001305F0FF8320C10099
:102E2C0003248100832441000329010013010101C3
:102E3C0067800000971700009387C7D96316F400CA
:102E4C0003A484006FF09FFA97170000938787D430
:102E5C00E31EF4F803A4C4006FF05FF993F7470086
:102E6C00638C070283254403638C05009307440499
:102E7C006386F50013050900EF00C055232A0402F0
:102E8C008357C4002322040093F7B7FD2316F400E4
:102E9C00832704012320F4008357C40093E78700A1
:102EAC002316F40083270401639007028357C400A0
:102EBC001307002093F707286388E70093050400A5
:102ECC0013050900EF00403F8357C40013F71700A8
:102EDC00630C07028327440123240400B307F0404A
:102EEC00232CF4008327040113050000E39807F258
:102EFC008317C40013F70708E30207F293E70704EC
:102F0C002316F4006FF05FF193F72700130700000E
:102F1C0063940700032744012324E4006FF09FFC13
:102F2C00130101FF23248100130405001385050000
:102F3C0023A2018E23261100EFE05FA79307F0FF79
:102F4C00631AF5009387418E83A7070063840700FB
:102F5C002320F4008320C10003248100130101010C
:102F6C006780000083D7C500130101FE232C81006C
:102F7C00232A9100232E110023282101232631011D
:102F8C0013F78700930405001384050063180714D6
:102F9C0003A745006346E00203A705046342E00271
:102FAC00130500008320C101032481018324410106
:102FBC00032901018329C10013010102678000006C
:102FCC000327C402E30E07FC03A904009396370100
:102FDC0023A0040063DC060A032644058357C400BF
:102FEC0093F74700638E0700832744003306F640AF
:102FFC008327440363860700832704043306F640C3
:10300C008327C40283250402930600001385040061
:10301C00E78007009307F0FF0357C4006312F50223
:10302C0083A604009307D00163E2D70AB7074020B8
:10303C0093871700B3D7D70093F717006388070857
:10304C0083270401232204002320F4009317370163
:10305C0063DC07009307F0FF6316F50083A70400F9
:10306C0063940700232AA4048325440323A024018A
:10307C00E38805F2930744046386F5001385040086
:10308C00EF004035232A04026FF09FF183250402E0
:10309C00130600009306100013850400E7000700D8
:1030AC009307F0FF13060500E31AF5F283A704005B
:1030BC00E38607F21307D0016386E700130760016C
:1030CC006392E70623A024016FF09FED13670704BA
:1030DC002316E4001305F0FF6FF0DFEC83A9050164
:1030EC00E38009EC03A9050093F7370023A0350111
:1030FC0033093941130700006394070003A7450106
:10310C002324E400E35E20E9832784028325040260
:10311C00930609001386090013850400E780070055
:10312C00634AA0008357C40093E707042316F400F6
:10313C006FF05FFAB389A9003309A9406FF09FFCC7
:10314C0083A70501638A0708130101FE232C810064
:10315C00232E110013040500630C05008327850141
:10316C00639807002326B100EFF04F848325C1003C
:10317C0097170000938707A46392F50283254400F8
:10318C008397C500638007041305040003248101A1
:10319C008320C101130101026FF0DFDC97170000DF
:1031AC00938747A36396F500832584006FF05FFD3A
:1031BC00971700009387079EE394F5FC8325C400C2
:1031CC006FF01FFC8320C101032481011305000053
:1031DC0013010102678000001305000067800000E6
:1031EC00130101FF2324810013040500138505003E
:1031FC00930506001386060023A2018E23261100D8
:10320C00EFE09F8C9307F0FF631AF5009387418ED4
:10321C0083A70700638407002320F4008320C100E8
:10322C00032481001301010167800000130101F8E0
:10323C00232A9106938405008395E500232C8106AF
:10324C00232E11061304060063DE050083D7C40089
:10325C0023A0060093F70708639007049307004028
:10326C006F00C003130681012326D100EF00500329
:10327C008326C100E34C05FC0327C101B7F700000E
:10328C00B3F7E70037E7FFFFB387E70093B7170003
:10329C0023A0F6006FF09FFC930700042320F4009A
:1032AC008320C107032481078324410713050000F1
:1032BC00130101086780000083D7C500130101FECC
:1032CC00232C8100232E1100232A91002328210175
:1032DC0093F727001384050063880702930774048F
:1032EC002320F4002328F40093071000232AF40071
:1032FC008320C1010324810183244101032901019D
:10330C0013010102678000009306C10013068100BF
:10331C0093040500EFF09FF183258100130905004C
:10332C0013850400EFF0CF9B631005028317C400D4
:10333C0013F70720E31E07FA93F7C7FF93E727005D
:10334C002316F4006FF09FF997F7FFFF9387C7DE02
:10335C0023A4F4028357C4002320A4002328A40030
:10336C0093E707082316F40083278100232AF4002F
:10337C008327C100638207028315E40013850400D0
:10338C00EF008076630A05008357C40093F7C7FFEC
:10339C0093E717002316F4008357C4003369F90030
:1033AC00231624016FF0DFF493F5F50F3306C500F7
:1033BC006316C500130500006780000083470500F5
:1033CC00E38CB7FE130515006FF09FFE67800000BD
:1033DC00678000006380051083A7C5FF130101FF00
:1033EC002324810023261100232291001384C5FF7E
:1033FC0063D407003304F40093040500EFF01FFDC1
:10340C009387018183A7070063920702232204009C
:10341C0023A88180032481008320C100138504002C
:10342C0083244100130101016FF09FFA6376F402CB
:10343C00832604003307D400639AE70003A7070030
:10344C0083A747003307D7002320E4002322F4008E
:10345C006FF01FFC9307070003A7470063040700E6
:10346C00E37AE4FE83A607003386D700631886024E
:10347C0003260400B386C60023A0D7003386D700EA
:10348C00E31AC7F80326070003274700B306D60044
:10349C0023A0D70023A2E7006FF0DFF76378C40006
:1034AC009307C00023A0F4006FF0DFF6032604009E
:1034BC00B306C400631AD70083260700032747000E
:1034CC00B386C6002320D4002322E40023A2870065
:1034DC006FF05FF467800000130101FD232A510196
:1034EC0083A70501930A070003A785002324810203
:1034FC0023229102232E3101232C41012326110278
:10350C00232021032328610123267101930905003F
:10351C001384050093040600138A060063D4E700A5
:10352C009307070023A0F400034734046306070045
:10353C009387170023A0F4008327040093F7070256
:10354C006388070083A704009387270023A0F40057
:10355C000329040013796900631E0900130B9401FD
:10356C00930BF0FF8327C40003A70400B387E74045
:10357C006342F908832704008346340493F7070257
:10358C00B336D0006390070C1306340493050A007D
:10359C0013850900E7800A009307F0FF6308F5061E
:1035AC00832704001306400003A7040093F7670069
:1035BC008326C400930400006398C700B384E640DC
:1035CC0063D40400930400008327840003270401C0
:1035DC006356F700B387E740B384F4001309000087
:1035EC001304A401130BF0FF6390240913050000CE
:1035FC006F0000029306100013060B0093050A00DF
:10360C0013850900E7800A00631A75031305F0FFA0
:10361C008320C10203248102832441020329010275
:10362C008329C101032A8101832A4101032B010152
:10363C00832BC100130101036780000013091900DB
:10364C006FF05FF23307D40013060003A301C70425
:10365C000347540493871600B307F400938626009F
:10366C00A381E7046FF05FF29306100013060400C9
:10367C0093050A0013850900E7800A00E30865F941
:10368C00130919006FF05FF6130101FD2324810269
:10369C002322910223202103232E31012326110200
:1036AC00232C4101232A510123286101938906000F
:1036BC0083C685019307E0061309060093040500F1
:1036CC0013840500138635046388F62863EAD7064D
:1036DC0093073006638EF60A63EED700638C062AD6
:1036EC0093078005638AF61E930A24042301D404ED
:1036FC006F00800B930740066386F60093079006D5
:10370C00E394F6FE832704000325070093F60708CD
:10371C0093054500638E0608832705002320B70018
:10372C0063D807001307D002B307F040A301E404E9
:10373C00970600009386464D1307A0006F00800D7E
:10374C0093073007638EF62463E2D7029307F006E3
:10375C00638EF60693070007E398F6F883A7050037
:10376C0093E7070223A0F5006F0040019307500771
:10377C00638EF60493078007E398F6F693078007A9
:10378C00A302F40497060000938646496F00801547
:10379C0083270700938A25049386470083A7070095
:1037AC002320D7002381F504930710006F004022DB
:1037BC0093F60704832705002320B700E38206F65F
:1037CC009397070193D707416FF09FF5832504006A
:1037DC008327070013F805081385470063080800C2
:1037EC002320A70083A707006F00400193F5050471
:1037FC002320A700E38805FE83D707001307F006F4
:10380C006380E61497060000938606401307A00019
:10381C00A3010404832544002324B40063C80500D9
:10382C00032504001375B5FF2320A400639607003D
:10383C00930A060063820502930A0600B3F5E702B9
:10384C00938AFAFFB385B60083C505002380BA00BE
:10385C00B3D5E70263FEE70E930780006314F7020B
:10386C008327040093F71700638E07000327440097
:10387C008327040163C8E70093070003A38FFAFEB4
:10388C00938AFAFF330656412328C4001387090094
:10389C00930609001306C100930504001385040068
:1038AC00EFF09FC3130AF0FF631A45131305F0FFE3
:1038BC008320C102032481028324410203290102D3
:1038CC008329C101032A8101832A4101032B0101B0
:1038DC001301010367800000A382D5049706000042
:1038EC0093868632832504000325070013F8050808
:1038FC008327050013054500630808022320A70051
:10390C0013F715006306070093E505022320B400A6
:10391C0013070001E39E07EE8325040093F5F5FDE4
:10392C002320B4006FF0DFEE13F805042320A7006A
:10393C00E30808FC9397070193D707016FF05FFC2E
:10394C00970600009386462C130780006FF05FECFF
:10395C00938705006FF09FEE83A605008327070071
:10396C0083A5450113F8060813854700630A080070
:10397C002320A70083A7070023A0B7006F008001B6
:10398C002320A70093F6060483A70700E38606FE10
:10399C002390B70023280400930A06006FF01FEF52
:1039AC008327070003A64500930500009386470074
:1039BC002320D70083AA070013850A00EFF0DF9EAF
:1039CC0063060500330555412322A40083274400D8
:1039DC002328F400A30104046FF05FEB8326040199
:1039EC0013860A009305090013850400E78009007B
:1039FC00E30E45EB8327040093F727006394070439
:103A0C008327C1000325C400E354F5EA138507009E
:103A1C006FF01FEA9306100013860A009305090045
:103A2C0013850400E7800900E30265E9130A1A0014
:103A3C008327C4000327C100B387E740E34CFAFC9B
:103A4C006FF01FFC130A0000930A9401130BF0FF94
:103A5C006FF01FFE130101FF2324810013040500E6
:103A6C0013850500930506001386060023A2018E1C
:103A7C0023261100EFE0CF8C9307F0FF631AF500BB
:103A8C009387418E83A70700638407002320F400EB
:103A9C008320C10003248100130101016780000011
:103AAC00130101FF23248100130405001385050075
:103ABC009305060023A2018E23261100EFD09FF45C
:103ACC009307F0FF631AF5009387418E83A70700D5
:103ADC00638407002320F4008320C10003248100A9
:103AEC001301010167800000130101FF23248100F1
:103AFC00130405001385050023A2018E2326110053
:103B0C00EFD01FF69307F0FF631AF5009387418EF1
:103B1C0083A70700638407002320F4008320C100DF
:0C3B2C00032481001301010167800000E8
:103B380024444B543A322C31210D0A0024444B546E
:103B48003A31372C30210D0A0000000024444B5430
:103B58003A31392C30210D0A0000000024444B541E
:103B68003A31382C35210D0A000000003078000069
:103B78000A0000000A50726F67616D206861732047
:103B8800657869746564207769746820636F646513
:103B98003A000000000000000000000000000000E3
:103BA800000000000000000000000000000000000D
:103BB80000000000000000000000000000000000FD
:103BC80000000000000000000000000000000000ED
:103BD80000000000000000000000000000000000DD
:103BE80000000000000000000000000000000000CD
:103BF80000000000232D302B20000000686C4C00D2
:103C0800656667454647000030313233343536370C
:103C180038394142434445460000000030313233D0
:103C280034353637383961626364656600000000F0
:043C38000000000286
:043C3C001C06000062
:103C400000000000BC3B0000DC3B00009C3B00008F
:103C50000000000000000000000000000000000064
:103C60000000000000000000000000000000000054
:103C70000000000000000000000000000000000044
:103C80000000000000000000000000000000000034
:103C90000000000000000000000000000000000024
:083CA0004801000200000002CF
:00000001FF
